{
  "_format": "hh-sol-artifact-1",
  "contractName": "Voting",
  "sourceName": "contracts/Voting.sol",
  "abi": [
    {
      "inputs": [],
      "stateMutability": "nonpayable",
      "type": "constructor"
    },
    {
      "inputs": [
        {
          "internalType": "string",
          "name": "_name",
          "type": "string"
        },
        {
          "internalType": "string",
          "name": "_manifestoIpfsHash",
          "type": "string"
        },
        {
          "internalType": "string",
          "name": "_imageIpfsHash",
          "type": "string"
        }
      ],
      "name": "addCandidate",
      "outputs": [],
      "stateMutability": "nonpayable",
      "type": "function"
    },
    {
      "inputs": [
        {
          "internalType": "uint256",
          "name": "",
          "type": "uint256"
        }
      ],
      "name": "candidates",
      "outputs": [
        {
          "internalType": "string",
          "name": "name",
          "type": "string"
        },
        {
          "internalType": "string",
          "name": "manifestoIpfsHash",
          "type": "string"
        },
        {
          "internalType": "string",
          "name": "imageIpfsHash",
          "type": "string"
        },
        {
          "internalType": "uint256",
          "name": "voteCount",
          "type": "uint256"
        }
      ],
      "stateMutability": "view",
      "type": "function"
    },
    {
      "inputs": [],
      "name": "candidatesCount",
      "outputs": [
        {
          "internalType": "uint256",
          "name": "",
          "type": "uint256"
        }
      ],
      "stateMutability": "view",
      "type": "function"
    },
    {
      "inputs": [],
      "name": "getLeadingCandidate",
      "outputs": [
        {
          "internalType": "string",
          "name": "name",
          "type": "string"
        },
        {
          "internalType": "uint256",
          "name": "voteCount",
          "type": "uint256"
        },
        {
          "internalType": "string",
          "name": "imageIpfsHash",
          "type": "string"
        }
      ],
      "stateMutability": "view",
      "type": "function"
    },
    {
      "inputs": [],
      "name": "getNumberOfCandidates",
      "outputs": [
        {
          "internalType": "uint256",
          "name": "",
          "type": "uint256"
        }
      ],
      "stateMutability": "view",
      "type": "function"
    },
    {
      "inputs": [],
      "name": "getOwner",
      "outputs": [
        {
          "internalType": "address",
          "name": "",
          "type": "address"
        }
      ],
      "stateMutability": "view",
      "type": "function"
    },
    {
      "inputs": [
        {
          "internalType": "address",
          "name": "voter",
          "type": "address"
        }
      ],
      "name": "getVotedCandidate",
      "outputs": [
        {
          "internalType": "string",
          "name": "name",
          "type": "string"
        },
        {
          "internalType": "string",
          "name": "manifestoIpfsHash",
          "type": "string"
        },
        {
          "internalType": "string",
          "name": "imageIpfsHash",
          "type": "string"
        }
      ],
      "stateMutability": "view",
      "type": "function"
    },
    {
      "inputs": [],
      "name": "owner",
      "outputs": [
        {
          "internalType": "address",
          "name": "",
          "type": "address"
        }
      ],
      "stateMutability": "view",
      "type": "function"
    },
    {
      "inputs": [
        {
          "internalType": "uint256",
          "name": "_candidateNum",
          "type": "uint256"
        }
      ],
      "name": "vote",
      "outputs": [],
      "stateMutability": "nonpayable",
      "type": "function"
    },
    {
      "inputs": [
        {
          "internalType": "address",
          "name": "",
          "type": "address"
        }
      ],
      "name": "voters",
      "outputs": [
        {
          "internalType": "bool",
          "name": "",
          "type": "bool"
        }
      ],
      "stateMutability": "view",
      "type": "function"
    },
    {
      "inputs": [
        {
          "internalType": "address",
          "name": "",
          "type": "address"
        }
      ],
      "name": "votes",
      "outputs": [
        {
          "internalType": "uint256",
          "name": "",
          "type": "uint256"
        }
      ],
      "stateMutability": "view",
      "type": "function"
    }
  ],
  "bytecode": "0x608060405234801561001057600080fd5b5033600460006101000a81548173ffffffffffffffffffffffffffffffffffffffff021916908373ffffffffffffffffffffffffffffffffffffffff1602179055506116e2806100616000396000f3fe608060405234801561001057600080fd5b50600436106100a95760003560e01c8063893d20e811610071578063893d20e8146101595780638da5cb5b14610177578063a3ec138d14610195578063ad71f8dc146101c5578063d8bff5a5146101e1578063edaa5dfc14610211576100a9565b80630121b93f146100ae5780632d35a8a2146100ca5780633477ee2e146100e857806369d76ae21461011b5780637a84d13e1461013b575b600080fd5b6100c860048036038101906100c39190610ce8565b610243565b005b6100d26103dd565b6040516100df9190610d24565b60405180910390f35b61010260048036038101906100fd9190610ce8565b6103e3565b6040516101129493929190610dcf565b60405180910390f35b6101236105ab565b60405161013293929190610e29565b60405180910390f35b610143610806565b6040516101509190610d24565b60405180910390f35b610161610810565b60405161016e9190610eaf565b60405180910390f35b61017f61083a565b60405161018c9190610eaf565b60405180910390f35b6101af60048036038101906101aa9190610ef6565b610860565b6040516101bc9190610f3e565b60405180910390f35b6101df60048036038101906101da919061108e565b610880565b005b6101fb60048036038101906101f69190610ef6565b6109b2565b6040516102089190610d24565b60405180910390f35b61022b60048036038101906102269190610ef6565b6109ca565b60405161023a93929190611135565b60405180910390f35b600160003373ffffffffffffffffffffffffffffffffffffffff1673ffffffffffffffffffffffffffffffffffffffff16815260200190815260200160002060009054906101000a900460ff16156102d0576040517f08c379a00000000000000000000000000000000000000000000000000000000081526004016102c7906111cd565b60405180910390fd5b6003548110610314576040517f08c379a000000000000000000000000000000000000000000000000000000000815260040161030b90611239565b60405180910390fd5b600080828152602001908152602001600020600301600081548092919061033a90611288565b919050555060018060003373ffffffffffffffffffffffffffffffffffffffff1673ffffffffffffffffffffffffffffffffffffffff16815260200190815260200160002060006101000a81548160ff02191690831515021790555080600260003373ffffffffffffffffffffffffffffffffffffffff1673ffffffffffffffffffffffffffffffffffffffff1681526020019081526020016000208190555050565b60035481565b6000602052806000526040600020600091509050806000018054610406906112ff565b80601f0160208091040260200160405190810160405280929190818152602001828054610432906112ff565b801561047f5780601f106104545761010080835404028352916020019161047f565b820191906000526020600020905b81548152906001019060200180831161046257829003601f168201915b505050505090806001018054610494906112ff565b80601f01602080910402602001604051908101604052809291908181526020018280546104c0906112ff565b801561050d5780601f106104e25761010080835404028352916020019161050d565b820191906000526020600020905b8154815290600101906020018083116104f057829003601f168201915b505050505090806002018054610522906112ff565b80601f016020809104026020016040519081016040528092919081815260200182805461054e906112ff565b801561059b5780601f106105705761010080835404028352916020019161059b565b820191906000526020600020905b81548152906001019060200180831161057e57829003601f168201915b5050505050908060030154905084565b60606000606060008060005b60035481101561060757826000808381526020019081526020016000206003015411156105fa576000808281526020019081526020016000206003015492508091505b80806001019150506105b7565b506000806000838152602001908152602001600020604051806080016040529081600082018054610637906112ff565b80601f0160208091040260200160405190810160405280929190818152602001828054610663906112ff565b80156106b05780601f10610685576101008083540402835291602001916106b0565b820191906000526020600020905b81548152906001019060200180831161069357829003601f168201915b505050505081526020016001820180546106c9906112ff565b80601f01602080910402602001604051908101604052809291908181526020018280546106f5906112ff565b80156107425780601f1061071757610100808354040283529160200191610742565b820191906000526020600020905b81548152906001019060200180831161072557829003601f168201915b5050505050815260200160028201805461075b906112ff565b80601f0160208091040260200160405190810160405280929190818152602001828054610787906112ff565b80156107d45780601f106107a9576101008083540402835291602001916107d4565b820191906000526020600020905b8154815290600101906020018083116107b757829003601f168201915b505050505081526020016003820154815250509050806000015181606001518260400151955095509550505050909192565b6000600354905090565b6000600460009054906101000a900473ffffffffffffffffffffffffffffffffffffffff16905090565b600460009054906101000a900473ffffffffffffffffffffffffffffffffffffffff1681565b60016020528060005260406000206000915054906101000a900460ff1681565b3373ffffffffffffffffffffffffffffffffffffffff16600460009054906101000a900473ffffffffffffffffffffffffffffffffffffffff1673ffffffffffffffffffffffffffffffffffffffff1614610910576040517f08c379a0000000000000000000000000000000000000000000000000000000008152600401610907906113a2565b60405180910390fd5b604051806080016040528084815260200183815260200182815260200160008152506000806003548152602001908152602001600020600082015181600001908161095b919061156e565b506020820151816001019081610971919061156e565b506040820151816002019081610987919061156e565b5060608201518160030155905050600360008154809291906109a890611288565b9190505550505050565b60026020528060005260406000206000915090505481565b6060806060600160008573ffffffffffffffffffffffffffffffffffffffff1673ffffffffffffffffffffffffffffffffffffffff16815260200190815260200160002060009054906101000a900460ff16610a5b576040517f08c379a0000000000000000000000000000000000000000000000000000000008152600401610a529061168c565b60405180910390fd5b6000600260008673ffffffffffffffffffffffffffffffffffffffff1673ffffffffffffffffffffffffffffffffffffffff1681526020019081526020016000205490506000806000838152602001908152602001600020604051806080016040529081600082018054610ace906112ff565b80601f0160208091040260200160405190810160405280929190818152602001828054610afa906112ff565b8015610b475780601f10610b1c57610100808354040283529160200191610b47565b820191906000526020600020905b815481529060010190602001808311610b2a57829003601f168201915b50505050508152602001600182018054610b60906112ff565b80601f0160208091040260200160405190810160405280929190818152602001828054610b8c906112ff565b8015610bd95780601f10610bae57610100808354040283529160200191610bd9565b820191906000526020600020905b815481529060010190602001808311610bbc57829003601f168201915b50505050508152602001600282018054610bf2906112ff565b80601f0160208091040260200160405190810160405280929190818152602001828054610c1e906112ff565b8015610c6b5780601f10610c4057610100808354040283529160200191610c6b565b820191906000526020600020905b815481529060010190602001808311610c4e57829003601f168201915b50505050508152602001600382015481525050905080600001518160200151826040015194509450945050509193909250565b6000604051905090565b600080fd5b600080fd5b6000819050919050565b610cc581610cb2565b8114610cd057600080fd5b50565b600081359050610ce281610cbc565b92915050565b600060208284031215610cfe57610cfd610ca8565b5b6000610d0c84828501610cd3565b91505092915050565b610d1e81610cb2565b82525050565b6000602082019050610d396000830184610d15565b92915050565b600081519050919050565b600082825260208201905092915050565b60005b83811015610d79578082015181840152602081019050610d5e565b60008484015250505050565b6000601f19601f8301169050919050565b6000610da182610d3f565b610dab8185610d4a565b9350610dbb818560208601610d5b565b610dc481610d85565b840191505092915050565b60006080820190508181036000830152610de98187610d96565b90508181036020830152610dfd8186610d96565b90508181036040830152610e118185610d96565b9050610e206060830184610d15565b95945050505050565b60006060820190508181036000830152610e438186610d96565b9050610e526020830185610d15565b8181036040830152610e648184610d96565b9050949350505050565b600073ffffffffffffffffffffffffffffffffffffffff82169050919050565b6000610e9982610e6e565b9050919050565b610ea981610e8e565b82525050565b6000602082019050610ec46000830184610ea0565b92915050565b610ed381610e8e565b8114610ede57600080fd5b50565b600081359050610ef081610eca565b92915050565b600060208284031215610f0c57610f0b610ca8565b5b6000610f1a84828501610ee1565b91505092915050565b60008115159050919050565b610f3881610f23565b82525050565b6000602082019050610f536000830184610f2f565b92915050565b600080fd5b600080fd5b7f4e487b7100000000000000000000000000000000000000000000000000000000600052604160045260246000fd5b610f9b82610d85565b810181811067ffffffffffffffff82111715610fba57610fb9610f63565b5b80604052505050565b6000610fcd610c9e565b9050610fd98282610f92565b919050565b600067ffffffffffffffff821115610ff957610ff8610f63565b5b61100282610d85565b9050602081019050919050565b82818337600083830152505050565b600061103161102c84610fde565b610fc3565b90508281526020810184848401111561104d5761104c610f5e565b5b61105884828561100f565b509392505050565b600082601f83011261107557611074610f59565b5b813561108584826020860161101e565b91505092915050565b6000806000606084860312156110a7576110a6610ca8565b5b600084013567ffffffffffffffff8111156110c5576110c4610cad565b5b6110d186828701611060565b935050602084013567ffffffffffffffff8111156110f2576110f1610cad565b5b6110fe86828701611060565b925050604084013567ffffffffffffffff81111561111f5761111e610cad565b5b61112b86828701611060565b9150509250925092565b6000606082019050818103600083015261114f8186610d96565b905081810360208301526111638185610d96565b905081810360408301526111778184610d96565b9050949350505050565b7f596f75206861766520616c726561647920766f74656421000000000000000000600082015250565b60006111b7601783610d4a565b91506111c282611181565b602082019050919050565b600060208201905081810360008301526111e6816111aa565b9050919050565b7f496e76616c69642063616e646964617465206e756d6265722100000000000000600082015250565b6000611223601983610d4a565b915061122e826111ed565b602082019050919050565b6000602082019050818103600083015261125281611216565b9050919050565b7f4e487b7100000000000000000000000000000000000000000000000000000000600052601160045260246000fd5b600061129382610cb2565b91507fffffffffffffffffffffffffffffffffffffffffffffffffffffffffffffffff82036112c5576112c4611259565b5b600182019050919050565b7f4e487b7100000000000000000000000000000000000000000000000000000000600052602260045260246000fd5b6000600282049050600182168061131757607f821691505b60208210810361132a576113296112d0565b5b50919050565b7f4f6e6c79204f776e65722063616e20657865637574652074686973206f70657260008201527f6174696f6e000000000000000000000000000000000000000000000000000000602082015250565b600061138c602583610d4a565b915061139782611330565b604082019050919050565b600060208201905081810360008301526113bb8161137f565b9050919050565b60008190508160005260206000209050919050565b60006020601f8301049050919050565b600082821b905092915050565b6000600883026114247fffffffffffffffffffffffffffffffffffffffffffffffffffffffffffffffff826113e7565b61142e86836113e7565b95508019841693508086168417925050509392505050565b6000819050919050565b600061146b61146661146184610cb2565b611446565b610cb2565b9050919050565b6000819050919050565b61148583611450565b61149961149182611472565b8484546113f4565b825550505050565b600090565b6114ae6114a1565b6114b981848461147c565b505050565b5b818110156114dd576114d26000826114a6565b6001810190506114bf565b5050565b601f821115611522576114f3816113c2565b6114fc846113d7565b8101602085101561150b578190505b61151f611517856113d7565b8301826114be565b50505b505050565b600082821c905092915050565b600061154560001984600802611527565b1980831691505092915050565b600061155e8383611534565b9150826002028217905092915050565b61157782610d3f565b67ffffffffffffffff8111156115905761158f610f63565b5b61159a82546112ff565b6115a58282856114e1565b600060209050601f8311600181146115d857600084156115c6578287015190505b6115d08582611552565b865550611638565b601f1984166115e6866113c2565b60005b8281101561160e578489015182556001820191506020850194506020810190506115e9565b8683101561162b5784890151611627601f891682611534565b8355505b6001600288020188555050505b505050505050565b7f54686973206164647265737320686173206e6f7420766f746564000000000000600082015250565b6000611676601a83610d4a565b915061168182611640565b602082019050919050565b600060208201905081810360008301526116a581611669565b905091905056fea2646970667358221220f55206632630f853a0d35c22323fde185f02cba481ee90e0f1a1e2be7fb1c9eb64736f6c63430008180033",
  "linkReferences": {},
  "deployedLinkReferences": {}
}